:100000000C942A000C9447000C943E010C94470079
:100010000C9447000C9447000C9447000C94470044
:100020000C9449000C9447000C9447000C94470032
:100030000C9447000C9447000C9447000C94470024
:100040000C9447000C9447000C9447000C94470014
:100050000C94470011241FBECFE5D4E0DEBFCDBF16
:1000600010E0A0E6B0E0E8EBFCE002C005900D92E5
:10007000AC36B107D9F710E0ACE6B0E001C01D9294
:10008000A23AB107E1F70E9437010C945A060C948A
:1000900000001F920F920FB60F9211248F93369A81
:1000A0003699FECF85B18E3610F4AE9801C0AE9A67
:1000B0008F910F900FBE0F901F901895DF93CF93E5
:1000C00000D0CDB7DEB780919E0090919F00009741
:1000D00011F482EA90E09E012F5F3F4F281B390BFD
:1000E000C9010F900F90CF91DF9108958FB9779B41
:1000F000FECF0895909892988FB9779BFECF909AF3
:1001000008959098929A8FB9779BFECF909A089510
:1001100080E40E947A0081EA0E947A0080EC0E94CA
:100120007A0084EA0E947A0086EA0E947A0080EBD4
:1001300094E028EB30E0F9013197F1F70197D9F716
:1001400082EA0E947A008FE20E947A0087E20E948F
:100150007A0081E80E947A0080E10E947A008AEFAA
:100160000E947A0080E90E947A008FEA0E947A0059
:1001700008958770806B0E947A0008951F9366E649
:100180000E942904192F892F8F700E947A001295DE
:100190001F70812F80610E947A001F9108950F9334
:1001A0001F93162F042F0E94B900812F0E94BE00BA
:1001B000802F0E9481001F910F9108958F3F11F0B1
:1001C000861718F4842F81500895642F0E94290403
:1001D000892F08950F931F9300E0802F0E94B9008C
:1001E00010E0812F0E94BE0080E00E9481001F5F0E
:1001F0001636B9F70F5F083081F71F910F910895F8
:10020000AE9AA69AAE9883EE87B987E886B981B38D
:100210008F7081BB84B38C7F84BB82B3806F82BBC1
:1002200085B3836085BB8BB780688BBF8CE085BF4F
:1002300084E089BF85E08EBD7894C398BB9A83B76C
:100240008B6683BF1CBEBC9AC49ABD9ABE98BF9AE7
:100250008DB181658DB9889A909A8A9A899A919878
:10026000919A0E9488000E94EA00AE9A08950E9426
:1002700000010E94EA0380E090E008951F920F922F
:100280000FB60F9211242F933F934F935F936F9369
:100290007F938F939F93AF93BF93EF93FF93869931
:1002A00006C080916000813011F010926000879943
:1002B00007C080916000882319F081E0809360007E
:1002C000849907C080916000833019F082E08093A8
:1002D0006000859907C080916000823019F083E04A
:1002E00080936000989904C00E94EA000E9456031F
:1002F000999903C08CB7805C8CBFFF91EF91BF913F
:10030000AF919F918F917F916F915F914F913F91AD
:100310002F910F900FBE0F901F901895FC018181B7
:100320008B5F81830895DC011296ED91FC91139708
:100330008081918108950F931F93282F892F613019
:1003400051F0613028F0623041F0633011F408C0A0
:10035000841B022F07C0840FFCCF022F041B02C096
:10036000042F020F60E040E10E94DE00182F802F72
:1003700060E049E10E94DE00912F1F910F910895E6
:10038000FC018081918163812281215022832F5F32
:1003900041E0421B0E949B010895EF92FF920F9350
:1003A0001F93CF93DF93EC01EC81FD81E180F0801E
:1003B000048115810115110541F4CF010E94090541
:1003C0001B821A821D821C8205C0CF010E94090572
:1003D0001D830C838F2D9E2DDF91CF911F910F9147
:1003E000FF90EF900895FC01808181508083A4816B
:1003F000B58112968C911297813021F4CF010E9421
:10040000CD010895CD010E94C0010895CF93DF93DF
:10041000EC0103C0CE010E94CD018C819D81892B0E
:10042000C9F7CE010E940905DF91CF910895FF928F
:100430000F931F93CF93DF93EC018B01F42E86E093
:1004400090E00E945C04FC01009711F40E94C20538
:100450001183008381E08283F38215821482AA8152
:10046000BB81109719F4FD83EC8304C01596FC93AF
:10047000EE931497FB83EA83DF91CF911F910F9145
:10048000FF900895FF920F931F93CF93DF93EC019A
:10049000162FEA81FB818081918141E00E949B01BE
:1004A000F82E092FEA81FB818381181741F491838B
:1004B000F082EA81FB8182818F5F828306C0CE0158
:1004C0006F2D702F412F0E94170288818F5F8883C4
:1004D0008F2D902FDF91CF911F910F91FF90089555
:1004E000CF92DF92EF92FF920F931F937C01C62E63
:1004F00086E090E00E945C04D92E082F192F81E03D
:10050000F801808385E08183C801B7014C2D0E94EA
:100510001702C7010E943B03802F9D2D1F910F9151
:10052000FF90EF90DF90CF900895089590E06E7F58
:1005300002C0959587956A95E2F783700895982F84
:10054000990F990F982B9373292F220F292B25751B
:10055000822F880F822B0895823041F0833041F042
:10056000813011F48FE0089580E0089580EF0895C0
:100570008FEF0895FF920F931F93CF93DF9300E0C7
:1005800010E0802F0E94B900E801C459DF4FFF241A
:100590008F2D0E94BE0088810E948100F3942296D4
:1005A00089E1F816A9F70F5F1F4F0230110549F7CF
:1005B000DF91CF911F910F91FF900895EF92FF92DD
:1005C0000F931F93E92E977021E030E001C0220FB6
:1005D0009A95EAF7082F10E04E2D469546954695D8
:1005E000822F8095000F111FF801E40FF11DE459CF
:1005F000FF4F408184232623822B808390E02E2D81
:10060000267002C0959587952A95E2F783700E941F
:10061000AC02F82EC801880F991F66E670E00E94B0
:100620003504182F8E2D86950E94B900812F0E94C7
:10063000BE008F2D0E948100812F8F5F0E94BE001F
:100640008F2D0E948100812F8E5F0E94BE008F2D12
:100650000E948100812F8D5F0E94BE008F2D0E941D
:10066000810081E01F910F91FF90EF90089560E06D
:100670000E94DE0208956FEF0E94DE020895E82FC7
:10068000F0E0892F869586958695EE0FFF1FE80F7F
:10069000F11DE459FF4F8081977021E030E002C0E6
:1006A000220F331F9A95E2F78223089580E090E0AD
:1006B000FC01EE0FFF1FE459FF4F108211820196DB
:1006C00089319105A9F70895861711F020E005C03A
:1006D00020E0971321E081E02827822F08950F93CF
:1006E0001F930E94B2058C010E94B20568E070E081
:1006F0000E9435049C01220F331FC80166E670E09A
:100700000E94350464E070E00E943504862F922F29
:100710001F910F9108950F931F930E946F03182F3D
:10072000092F0E943F038823C1F7812F902F0E9439
:100730003B03812F902F1F910F910895EF92FF920D
:100740000F931F93CF93DF93EC01E62E072F0E94A8
:100750009301182FF92E8E1511F06E2D03C09017EE
:1007600019F0682F702F0AC0CE010E948E01812FD0
:100770009F2D0E9437030E948B03BC01CB01DF91A8
:10078000CF911F910F91FF90EF9008950F931F93BA
:100790008C010E94EA00C8010E9406020E945603D2
:1007A0001F910F910895CF93DF93EC010E94930165
:1007B0000E943F03882319F0CE010E94C603DF91F7
:1007C000CF910895369A3699FECF84B190E00E9479
:1007D000B7050895CF92DF92EF92FF920F931F9388
:1007E000CF93DF938CE098E0609160000E947002EC
:1007F000EC010E94E2030E948B03E92EF82E58EBD5
:10080000C52ED12CCE01609160000E944202182FAB
:10081000092FCE016F2D7E2D0E949E03E92EF82E0A
:10082000CE010E94D303812F902F0E943B0305C06D
:10083000CE010E94F3010E943703988189819817A5
:10084000B8F780ED97E0F6013197F1F70197D9F706
:10085000D9CF991B79E004C0991F961708F0961B11
:10086000881F7A95C9F78095089597FB092E07266A
:100870000AD077FD04D00CD006D000201AF4709571
:1008800061957F4F0895F6F7909581959F4F089554
:10089000AA1BBB1B51E107C0AA1FBB1FA617B707A6
:1008A00010F0A61BB70B881F991F5A95A9F78095C2
:1008B0009095BC01CD010895CF93DF93BC018230A8
:1008C000910510F462E070E0A091A000B091A10049
:1008D000ED01E0E0F0E040E050E021C08881998146
:1008E0008617970769F48A819B81309719F0938363
:1008F000828304C09093A1008093A000FE0134C0C5
:100900006817790738F44115510519F084179507D0
:1009100008F4AC01FE018A819B819C01E9012097CA
:10092000E9F641155105A9F1CA01861B970B0497F9
:1009300008F4BA01E0E0F0E02AC08D919C91119793
:1009400084179507F9F46417750781F412968D9151
:100950009C911397309719F09383828304C09093EE
:10096000A1008093A000FD0132964FC0CA01861BF2
:10097000970BFD01E80FF91F6193719302978D9317
:100980009C9343C0FD01828193819C01D901109702
:10099000A1F680919E0090919F00892B41F4809157
:1009A00063009091640090939F0080939E0040911B
:1009B0006500509166004115510541F44DB75EB791
:1009C0008091610090916200481B590B20919E001C
:1009D00030919F0024173507B0F4CA01821B930B96
:1009E0008617970780F0AB014E5F5F4F841795071E
:1009F00050F0420F531F50939F0040939E00F90107
:100A00006193719302C0E0E0F0E0CF01DF91CF91FC
:100A10000895CF93DF93009709F450C0EC0122971B
:100A20001B821A82A091A000B091A100109709F139
:100A300040E050E0AC17BD0708F1BB83AA83FE017C
:100A400021913191E20FF31FAE17BF0779F48D9119
:100A50009C911197280F391F2E5F3F4F39832883B0
:100A600012968D919C9113979B838A834115510512
:100A700071F4D093A100C093A00020C012968D9174
:100A80009C911397AD01009711F0DC01D3CFFA01CF
:100A9000D383C28321913191E20FF31FCE17DF0779
:100AA00069F488819981280F391F2E5F3F4FFA0121
:100AB000318320838A819B8193838283DF91CF91CD
:100AC0000895A0E0B0E0E7E6F5E00C940906EC013B
:100AD000A880B980CA80DB80A114B104C104D1040C
:100AE00041F484E2A82E89EDB82E8BE5C82E87E06C
:100AF000D82EC601B5012DE133EF41E050E00E9450
:100B0000E60527EA31E440E050E00E94C7057B019A
:100B10008C01C601B5012DE133EF41E050E00E94A8
:100B2000E605CA01B9012CEE34EF4FEF5FEF0E94EA
:100B3000C7056E0D7F1D801F911F97FF04C0615078
:100B4000704080409048688379838A839B839B01AF
:100B50003F77C901CDB7DEB7EAE00C9425060E94C5
:100B60006105089587E690E00E9461050895A0E080
:100B7000B0E08093670090936800A0936900B09301
:100B80006A00089581E090E0F8940C945A06629F00
:100B9000D001739FF001829FE00DF11D649FE00D75
:100BA000F11D929FF00D839FF00D749FF00D659FD6
:100BB000F00D9927729FB00DE11DF91F639FB00DD5
:100BC000E11DF91FBD01CF011124089597FB092EE6
:100BD00005260ED057FD04D04BD00AD0001C38F4A7
:100BE00050954095309521953F4F4F4F5F4F089559
:100BF000F6F790958095709561957F4F8F4F9F4F39
:100C000008952F923F924F925F926F927F928F92B0
:100C10009F92AF92BF92CF92DF92EF92FF920F938B
:100C20001F93CF93DF93CDB7DEB7CA1BDB0B0FB695
:100C3000F894DEBF0FBECDBF09942A883988488852
:100C40005F846E847D848C849B84AA84B984C884E8
:100C5000DF80EE80FD800C811B81AA81B981CE0FDF
:100C6000D11D0FB6F894DEBF0FBECDBFED010895C4
:100C7000A1E21A2EAA1BBB1BFD010DC0AA1FBB1FA0
:100C8000EE1FFF1FA217B307E407F50720F0A21B12
:100C9000B30BE40BF50B661F771F881F991F1A947F
:100CA00069F760957095809590959B01AC01BD01A9
:080CB000CF010895F894FFCF75
:0C0CB800032000A200000001000000006A
:00000001FF
